:100000000C9456000C9468000C9468000C946800E2
:100010000C9468000C9468000C9468000C946800C0
:100020000C9468000C9468000C9468000C946800B0
:100030000C9468000C9468000C9468000C946800A0
:100040000C9498000C9468000C9468000C94680060
:100050000C9468000C9468000C9468000C94680080
:100060000C9468000C9468000C9468000C94680070
:100070000C9468000C9468000C9468000C94680060
:100080000C9468000C9468000C9468000C94680050
:100090000C9468000C9468000C9468000C94680040
:1000A0000C9468000C9468000C94680011241FBE26
:1000B000CFEFD5E0DEBFCDBF21E0A0E0B1E001C0D1
:1000C0001D92A430B207E1F70E94CF000C94F20217
:1000D0000C940000E0E8F0E0808183628083E1E836
:1000E000F0E080818A61808380E29EE490938900C1
:1000F00080938800549A089580E286BBEFE6F0E092
:100100008081806280830895ACE7B0E08C91806448
:100110008C93EAE7F0E0808183628083808180684D
:1001200080838C9181608C9380818064808308952A
:100130001F920F920FB60F9211242F933F938F931C
:100140009F93EF93FF938091860090918700209179
:10015000810026FF0AC0E1E8F0E020812F7B2083A8
:1001600090930101809300010FC0E1E8F0E020814D
:10017000206420832091000130910101821B930BA8
:100180009093030180930201FF91EF919F918F91D2
:100190003F912F910F900FBE0F901F9018958FEFEA
:1001A00084B915B80E947C000E946A000E948400F5
:1001B000559A7894E12CF12CA12CB12C24EF31E04C
:1001C0000F2EF8E7CF2ED12CF02D0F2EFAE88F2E20
:1001D000912CF02D0F2EFCE02F2EFEEF3F2EF02D58
:1001E000F89400910201109103017894C8018E5E89
:1001F00092408D3D9540A0F7085E1340013283E0A8
:10020000180708F08901F6018081918120813181F0
:100210002D37310510F05D9A01C05D98E801C81BCB
:10022000D90BBE01882777FD8095982F0E94030285
:1002300020E030E040E250E40E948F022B013C01BC
:10024000BE016A197B09882777FD8095982F0E9447
:10025000030220E030E0A9010E948F029B01AC0163
:10026000C301B2010E946C012B013C01B701882738
:1002700077FD8095982F0E94030220E030E0A901CD
:100280000E948F029B01AC01C301B2010E946C016C
:100290000E94D001862F972F853FF1E09F0714F031
:1002A00084EF91E08C302EEF92070CF4C1019C0199
:1002B000992314F42D5F3F4F359527953595279554
:1002C00025B984529A4FF401918380839801EC0EF2
:1002D000FD1E5E0185CF5058BB27AA270ED0E5C072
:1002E000D6D030F0DBD020F031F49F3F11F41EF473
:1002F000CBC00EF4E095E7FBC1C0E92FE7D080F357
:10030000BA17620773078407950718F071F49EF512
:10031000FFC00EF4E0950B2EBA2FA02D0B01B901F2
:1003200090010C01CA01A0011124FF27591B99F06B
:10033000593F50F4503E68F11A16F040A22F232F77
:10034000342F4427585FF3CF469537952795A795C7
:10035000F0405395C9F77EF41F16BA0B620B730B6E
:10036000840BBAF09150A1F0FF0FBB1F661F771FDF
:10037000881FC2F70EC0BA0F621F731F841F48F494
:10038000879577956795B795F7959E3F08F0B3CF1A
:100390009395880F08F09927EE0F97958795089504
:1003A00004D06894B111B5C0089598D088F09F57D3
:1003B00090F0B92F9927B751A0F0D1F0660F771FB1
:1003C000881F991F1AF0BA95C9F712C0B13081F091
:1003D0009FD0B1E008959CC0672F782F8827B85F21
:1003E00039F0B93FCCF3869577956795B395D9F7F2
:1003F0003EF490958095709561957F4F8F4F9F4FFC
:100400000895E89409C097FB3EF490958095709507
:1004100061957F4F8F4F9F4F9923A9F0F92F96E950
:10042000BB279395F695879577956795B795F111C5
:10043000F8CFFAF4BB0F11F460FF1BC06F5F7F4F62
:100440008F4F9F4F16C0882311F096E911C0772374
:1004500021F09EE8872F762F05C0662371F096E87D
:10046000862F70E060E02AF09A95660F771F881F4C
:10047000DAF7880F9695879597F9089597F99F670A
:1004800080E870E060E008959FEF80EC089500241C
:100490000A941616170618060906089500240A94E9
:1004A00012161306140605060895092E0394000C6F
:1004B00011F4882352F0BB0F40F4BF2B11F460FFFE
:1004C00004C06F5F7F4F8F4F9F4F089557FD905827
:1004D000440F551F59F05F3F71F04795880F97FB08
:1004E000991F61F09F3F79F08795089512161306C2
:1004F0001406551FF2CF4695F1DF08C016161706F1
:100500001806991FF1CF8695710561050894089525
:10051000E894BB2766277727CB0197F908950BD07E
:10052000C4CFB5DF28F0BADF18F0952309F0A6CFC5
:10053000ABCF1124EECFCADFA0F3959FD1F3950F77
:1005400050E0551F629FF001729FBB27F00DB11D57
:10055000639FAA27F00DB11DAA1F649F6627B00DE7
:10056000A11D661F829F2227B00DA11D621F739FD0
:10057000B00DA11D621F839FA00D611D221F749FDE
:100580003327A00D611D231F849F600D211D822F25
:10059000762F6A2F11249F5750408AF0E1F088236C
:1005A0004AF0EE0FFF1FBB1F661F771F881F915079
:1005B0005040A9F79E3F510570F060CFAACF5F3F32
:1005C000ECF3983EDCF3869577956795B795F795AC
:1005D000E7959F5FC1F7FE2B880F911D9695879534
:0805E00097F90895F894FFCF8C
:00000001FF
