:1000000012C019C018C018C016C015C020C013C037
:1000100012C011C010C02BC00EC00DC00CC00BC050
:100020000AC009C008C011241FBECFE5D4E0DEBF5E
:10003000CDBF2ED0A7C0E4CF1F920F920FB60F9264
:100040001124A8950F900FBE0F901F9018951F9226
:100050000F920FB60F9211248F93C19888B38B7EA5
:1000600088BB8F910F900FBE0F901F9018951F9215
:100070000F920FB60F9211248F938CB1873411F425
:100080001DBC1CBC8F910F900FBE0F901F90189538
:1000900028E088E190E00FB6F894A89581BD0FBEE6
:1000A00021BD10BC83E389B959988EE880BD20E951
:1000B0002AB98EE387BB85B78F7885BF85B78068FF
:1000C00085BF1FBC8CE08EBD83ED90E39BBD8ABDD8
:1000D0001DBC1CBC80E188BF8FE085BD8CE783BD63
:1000E00014BC80E888BF29BF7894C19888B38B7E00
:1000F00088BBA8958895FECFB09903C0C39880E0CF
:100100000895C39A81E00895882329F4C19888B39B
:100110008B7E88BB0895C19AC49A88B38B7D88BBB7
:1001200008951DBC1CBC089528E088E190E00FB63E
:10013000F894A89581BD0FBE21BD10BC83E389B999
:1001400059988EE880BD20E92AB98EE387BB85B730
:100150008F7885BF85B7806885BF1FBC8CE08EBD5A
:1001600083ED90E39BBD8ABD1DBC1CBC80E188BFB4
:100170008FE085BD8CE783BD14BC80E888BF29BFB4
:0801800078940895F894FFCF74
:00000001FF
