:1000000012C02CC02BC0DBC229C028C095C226C09C
:1000100025C024C023C022C021C020C01FC01EC0D4
:100020001DC01CC01BC011241FBECFE5D4E0DEBF25
:10003000CDBF10E0A0E6B0E0E8E0F7E002C0059038
:100040000D92A036B107D9F720E0A0E6B0E001C0DC
:100050001D92A536B207E1F7DDD254C3D1CF39984E
:10006000389A369A8FE99FE00197F1F700C00000B7
:1000700085B1873E20F481E080936200089510925C
:100080006200089539983898369A8FE99FE0019771
:10009000F1F700C0000085B1883F20F481E0809333
:1000A00061000895109261000895C19A8FE99FE060
:1000B0000197F1F700C00000C1981FB8779BFECFF1
:1000C0008FEF8FB9779BFECF1FB8779BFECF1FB8FE
:1000D000779BFECF1FB8779BFECF1FB8779BFECFD5
:1000E0008FEF8FB9779BFECF1FB8779BFECF1FB8DE
:1000F000779BFECF1FB8779BFECF8FEF8FB9779B93
:10010000FECF1FB8779BFECF1FB8779BFECF1FB8DF
:10011000779BFECF1FB8779BFECF8FEF8FB9779B72
:10012000FECF1FB8779BFECF1FB8779BFECF1FB8BF
:10013000779BFECF8FEF8FB9779BFECF1FB8779B52
:10014000FECF1FB8779BFECF1FB8779BFECF1FB89F
:10015000779BFECF8FEF8FB9779BFECF1FB8779B32
:10016000FECF1FB8779BFECF1FB8779BFECF8FEFD8
:100170008FB9779BFECF1FB8779BFECF1FB8779BB9
:10018000FECF1FB8779BFECF1FB8779BFECF8FEFB8
:100190008FB9779BFECF1FB8779BFECF1FB8779B99
:1001A000FECFC29A8FE99FE00197F1F700C00000EF
:1001B000C2980895C19A8FE99FE00197F1F700C0B6
:1001C0000000C1988FEF8FB9779BFECF1FB8779B48
:1001D000FECF1FB8779BFECF1FB8779BFECF8FEF68
:1001E0008FB9779BFECF1FB8779BFECF1FB8779B49
:1001F000FECF1FB8779BFECF1FB8779BFECF8FEF48
:100200008FB9779BFECF1FB8779BFECF1FB8779B28
:10021000FECF1FB8779BFECF8FEF8FB9779BFECFB6
:100220001FB8779BFECF1FB8779BFECF1FB8779B79
:10023000FECF1FB8779BFECF8FEF8FB9779BFECF96
:100240001FB8779BFECF1FB8779BFECF1FB8779B59
:10025000FECF8FEF8FB9779BFECF1FB8779BFECF76
:100260001FB8779BFECF1FB8779BFECF1FB8779B39
:10027000FECF8FEF8FB9779BFECF1FB8779BFECF56
:100280001FB8779BFECF1FB8779BFECF8FEF8FB93C
:10029000779BFECF1FB8779BFECF1FB8779BFECF13
:1002A0001FB8779BFECF1FB8779BFECFC29A8FE90E
:1002B0009FE00197F1F700C00000C2980895C19A2D
:1002C0008FE99FE00197F1F700C00000C1981092FC
:1002D0006400109263001FB8779BFECF809163008B
:1002E00090916400019690936400809363008497DA
:1002F00094F3C29A8FE99FE00197F1F700C00000E4
:10030000C2980895C19A8FE99FE00197F1F700C064
:100310000000C1988FEF8FB9779BFECF8FEF8FB919
:10032000779BFECF1FB8779BFECF1FB8779BFECF82
:100330008FEF8FB9779BFECF1FB8779BFECF8FEFE4
:100340008FB9779BFECF1FB8779BFECF1FB8779BE7
:10035000FECF8FEF8FB9779BFECF8FEF8FB9779B53
:10036000FECF1FB8779BFECF1FB8779BFECF8FEFD6
:100370008FB9779BFECF1FB8779BFECF8FEF8FB9DA
:10038000779BFECF1FB8779BFECF1FB8779BFECF22
:100390008FEF8FB9779BFECF8FEF8FB9779BFECF13
:1003A0001FB8779BFECF1FB8779BFECF8FEF8FB91B
:1003B000779BFECF1FB8779BFECF8FEF8FB9779BD0
:1003C000FECF1FB8779BFECF1FB8779BFECF8FEF76
:1003D0008FB9779BFECF8FEF8FB9779BFECF1FB87A
:1003E000779BFECF1FB8779BFECF8FEF8FB9779BA0
:1003F000FECF1FB8779BFECF8FEF8FB9779BFECFD5
:100400001FB8779BFECF1FB8779BFECFC29A8FE9AC
:100410009FE00197F1F700C00000C2980895C19ACB
:100420008FE99FE00197F1F700C00000C1981FB865
:10043000779BFECF8FEF8FB9779BFECF1FB8779B4F
:10044000FECF8FEF8FB9779BFECF1FB8779BFECF84
:100450001FB8779BFECF8FEF8FB9779BFECF8FEFC3
:100460008FB9779BFECF1FB8779BFECF1FB8779BC6
:10047000FECF8FEF8FB9779BFECF1FB8779BFECF54
:100480008FEF8FB9779BFECF1FB8779BFECF1FB83A
:10049000779BFECF8FEF8FB9779BFECF8FEF8FB912
:1004A000779BFECF1FB8779BFECF1FB8779BFECF01
:1004B0008FEF8FB9779BFECF1FB8779BFECF8FEF63
:1004C0008FB9779BFECF1FB8779BFECF1FB8779B66
:1004D000FECF8FEF8FB9779BFECF8FEF8FB9779BD2
:1004E000FECF1FB8779BFECF1FB8779BFECF8FEF55
:1004F0008FB9779BFECF1FB8779BFECF8FEF8FB959
:10050000779BFECF1FB8779BFECF1FB8779BFECFA0
:100510008FEF8FB9779BFECF8FEF8FB9779BFECF91
:100520001FB8779BFECFC29A8FE99FE00197F1F742
:1005300000C00000C29808951F920F920FB60F924C
:1005400011242F933F934F935F936F937F938F93D8
:100550009F93AF93BF93EF93FF932CDE2FEF82E532
:1005600097E0215080409040E1F700C00000A7DEF6
:100570002FE78AE196E0215080409040E1F700C0EB
:10058000000018DE2FEF82E597E021508040904078
:10059000E1F700C0000093DE1DBC1CBCFF91EF9191
:1005A000BF91AF919F918F917F916F915F914F918B
:1005B0003F912F910F900FBE0F901F9018951F9293
:1005C0000F920FB60F92112414BC0F900FBE0F9014
:1005D0001F901895919A08959198089587B1836016
:1005E00087B98FE39CE90197F1F700C00000369AC4
:1005F0008FE39CE90197F1F700C0000085B18F33CC
:1006000028F0E8DF81E0809360000895E5DF109234
:10061000600008958EE287BB80E58DB986B1876260
:1006200086B93D9A379A8EB585608EBD89B780614F
:1006300089BF82E19AE79BBD8ABD1DBC1CBC85B504
:100640008F6085BD89B7806889BF8FEF83BD14BC7B
:1006500080E888BF7894899ABDDF2FEF89E698E11A
:10066000215080409040E1F700C00000B5DF2FEF3F
:1006700083EC99E0215080409040E1F700C00000F9
:10068000C1E0EDDCFFDCAADF109260008091620027
:10069000882359F0F89409DD2FEF89E698E121507D
:1006A00080409040E1F700C0000080916100882305
:1006B00059F0F894B4DE2FEF89E698E1215080409C
:1006C0009040E1F700C0000080916000882359F05D
:1006D000F89418DE2FEF89E698E121508040904091
:1006E000E1F700C00000909162009C2780916000BB
:1006F0008C27892331F2809161008C1709F4C1CFD6
:080700007894BFCFF894FFCFFD
:00000001FF
