:1000000012C019C018C017C016C015C015C013C043
:1000100012C011C010C00FC00EC00DC00CC00BC06C
:100020000AC009C008C011241FBECFE5D4E0DEBF5E
:10003000CDBF16D069C0E4CF1F920F920FB60F92BA
:1000400011248F93A895B29904C05D9BFECF87E4DD
:100050008CB9C1988F910F900FBE0F901F9018957B
:1000600028E088E190E00FB6F894A89581BD0FBE16
:1000700021BD10BC8CE089B9599A8EE880BD2AB99F
:1000800082E087BB85B78F7885BF85B7806885BFDD
:100090001FBC8BE08EBD89EF90E09BBD8ABD1DBC6F
:1000A0001CBC80E188BF89BF7894A8958895FECF55
:1000B000B29903C05D9BFECF8CB9089528E088E11A
:1000C00090E00FB6F894A89581BD0FBE21BD10BC7D
:1000D0008CE089B9599A8EE880BD2AB982E087BB45
:1000E00085B78F7885BF85B7806885BF1FBC8BE0DB
:1000F0008EBD89EF90E09BBD8ABD1DBC1CBC80E11C
:0C01000088BF89BF78940895F894FFCF61
:00000001FF
