:100000000C9456000C9473000C9473000C947300C1
:100010000C9473000C9473000C9473000C94730094
:100020000C9473000C9473000C9473000C94730084
:100030000C9473000C9473000C9473000C94730074
:100040000C9473000C9473000C9473000C94730064
:100050000C9473000C9473000C9473000C94730054
:100060000C9473000C9473000C9473000C94730044
:100070000C9473000C9473000C9473000C94730034
:100080000C9473000C9473000C9473000C94730024
:100090000C9473000C9473000C9473000C94730014
:1000A0000C9473000C9473000C94730011241FBE05
:1000B000CFEFDAE0DEBFCDBF12E0A0E0B1E0EEE7C7
:1000C000F2E102C005900D92AE30B107D9F712E00F
:1000D000AEE0B2E001C01D92AF30B107E1F70E947F
:1000E00072040C943D090C940000FC01289A8FE9DD
:1000F0009FE00197F1F700C00000289880818EBD35
:100100000DB407FEFDCF81818EBD0DB407FEFDCF7E
:1001100082818EBD0DB407FEFDCF83818EBD0DB4EF
:1001200007FEFDCF84818EBD0DB407FEFDCF858116
:100130008EBD0DB407FEFDCF86818EBD0DB407FECA
:10014000FDCF87818EBD0DB407FEFDCF80858EBDAE
:100150000DB407FEFDCF81858EBD0DB407FEFDCF2A
:1001600082858EBD0DB407FEFDCF83858EBD0DB497
:1001700007FEFDCF84858EBD0DB407FEFDCF8585BE
:100180008EBD0DB407FEFDCF86858EBD0DB407FE76
:10019000FDCF87858EBD0DB407FEFDCF80898EBD56
:1001A0000DB407FEFDCF81898EBD0DB407FEFDCFD6
:1001B00080818EBD0DB407FEFDCF81818EBD0DB453
:1001C00007FEFDCF82818EBD0DB407FEFDCF83817A
:1001D0008EBD0DB407FEFDCF84818EBD0DB407FE2C
:1001E000FDCF85818EBD0DB407FEFDCF86818EBD0E
:1001F0000DB407FEFDCF87818EBD0DB407FEFDCF88
:1002000080858EBD0DB407FEFDCF81858EBD0DB4FA
:1002100007FEFDCF82858EBD0DB407FEFDCF838521
:100220008EBD0DB407FEFDCF84858EBD0DB407FED7
:10023000FDCF85858EBD0DB407FEFDCF86858EBDB5
:100240000DB407FEFDCF87858EBD0DB407FEFDCF33
:1002500080898EBD0DB407FEFDCF81898EBD0DB4A2
:1002600007FEFDCF299A8FE99FE00197F1F700C0C3
:10027000000029980895DF93CF93CDB7DEB762973A
:100280000FB6F894DEBF0FBECDBFFE01319622E15E
:10029000DF011D922A95E9F7DC012D913C91119720
:1002A000B5E0243F3B0709F44DC085E0253F380702
:1002B000B0F188E02E3E3807E9F0A8E02F3E3A077B
:1002C00008F45CC0B9E0243E3B07A1F089E0253E7C
:1002D000380708F4D8C089E0263E380759F0A9E06D
:1002E000263E3A0708F4A8C02C5E3A402230310579
:1002F00008F0A2C08FEF89838A838B838C838D83E0
:100300008E838F83888789878A878B878C878D8761
:100310008E878F87888B898B8A8B87E01DC0A3E0AF
:10032000243E3A0709F44EC0B3E0253E3B07A0F156
:1003300084E0263F380708F076C0A4E0243F3A075F
:1003400008F447C08FEF8A838C838F8388878B87DD
:100350008D87888B898B86E090910E02891729F012
:1003600080930E02CF010E94750062960FB6F8943A
:10037000DEBF0FBECDBFCF91DF910895B6E0263E20
:100380003B07B0F586E0243E3807E0F6A5E0263FBF
:100390003A0709F051C0D6CF273E310511F1283E6A
:1003A000310508F469C02C3F310509F45AC02F3FCC
:1003B000310509F041C08FEF8C8388878D87898B49
:1003C00082E0CACF8FEF89838D838A878E8783E00F
:1003D000C3CFB4E0243E3B07C1F084E0273E38079A
:1003E00059F58FEF8A838F838B87888B81E0B4CF19
:1003F000B8E0273E3B07A9F388E02C3E380709F414
:1004000079CFA8E0243E3A07B9F49DE799838FEFAE
:100410008A832EE12B839D838F839A878B879E8788
:10042000888B85E099CFA4E02C3F3A07D1F0B4E067
:100430002F3F3B0709F4BFCF8AE089838A838B83F0
:100440008C838D838E838F83888789878A878B8728
:100450008C878D878E878F87888B898B8A8B89E0A5
:100460007BCF8FEF89838A838D838F838A878B8766
:100470008E87888B84E070CF2115310569F0243E8A
:100480003105D1F6C2CFA8E02C3F3A0751F3B8E0CE
:100490002F3F3B0789F68FCF88E05ECF6F927F9228
:1004A0008F929F92AF92BF92CF92DF92EF92FF9284
:1004B0000F931F93DF93CF9300D0CDB7DEB71A828F
:1004C0001982AA24BB244E010894811C911C60E867
:1004D000662E712C8091C80087FFFCCF8091CE00E2
:1004E000813609F44DC1823600F5813309F492C09A
:1004F000823308F059C08C3009F418C1893109F4ED
:1005000000C1863039F789819A81807C907000978C
:1005100009F3C801880F991F000F111F000F111F49
:10052000000F111F080F191FD5CF863609F413C10C
:100530008736E0F4843609F429C1853608F0CCC04A
:10054000833641F689819A81807C9070009711F200
:10055000C801880F991F000F111F000F111F000FF6
:10056000111F080F191F075F1F4FB4CF893609F4F9
:10057000ABC0893709F477C0873609F0ABCF8981E2
:100580009A81807C9070009709F4A4CFC801880FED
:10059000991F000F111F000F111F000F111F080FCF
:1005A000191F0F5F1F4F96CF8333F9F0833340F04D
:1005B000863509F08FCF7A82698200E010E08ACF19
:1005C00089819A81807C9070009709F483CFC8015B
:1005D000880F991F000F111F000F111F000F111F0F
:1005E000080F191F0A5F1F4F75CF89819A81807C80
:1005F0009070009709F46ECFC801880F991F000F03
:10060000111F000F111F000F111F080F191F0E5F80
:100610001F4F60CFC980DA8050E2E52EF12CEC2824
:10062000FD28FA82E982B801882777FD8095982F06
:100630000E94BC0620E030E04CE752E40E948C06A9
:1006400018160CF0D6C042E2E42EF12CEC28FD285E
:10065000FA82E982E4FEC9C0AA24BB24A01AB10A26
:1006600000E010E037CFC980DA8024E0E22EF12CE0
:10067000EC28FD28FA82E982B801882777FD809569
:10068000982F0E94BC0620E030E04CE752E40E9424
:100690008C0618160CF093C095E0E92EF12CEC288E
:1006A000FD28FA82E982E3FE03C0109501951F4FF1
:1006B000A016B1060CF090C0C70194609A8389839C
:1006C000C4010E943B0106CF89819A8185FF73C0D6
:1006D00088609A838983FECE89819A81807C90701C
:1006E000009709F4F7CEC801880F991F000F111F5A
:1006F000000F111F000F111F080F191F0B5F1F4F55
:10070000E9CE89819A81807C9070009709F4E2CECD
:10071000C801880F991F000F111F000F111F000F34
:10072000111F080F191F0C5F1F4FD4CE89819A81AA
:10073000807C9070009709F4CDCEC801880F991F76
:10074000000F111F000F111F000F111F080F191F9D
:10075000085F1F4FBFCE89819A81807C907000977F
:1007600009F4B8CEC801880F991F000F111F000FA0
:10077000111F000F111F080F191F0D5F1F4FAACE69
:1007800089819A8180649A838983A4CE89819A81A0
:10079000807C9070009709F49DCEC801880F991F46
:1007A000000F111F000F111F000F111F080F191F3D
:1007B000095F1F4F8FCE80619A8389838BCE01158D
:1007C000110509F070CF84E0E82E81E0F82EEC28C6
:1007D000FD28FA82E98267CF0A151B050CF070CF5D
:1007E000C70198609A8389836BCF580100E010E0BD
:1007F00071CE0115110509F02DCF30E2E32E32E064
:10080000F32EEC28FD28FA82E98224CFDF93CF93E0
:10081000CDB7DEB760970FB6F894DEBF0FBECDBF81
:1008200010920E0287E084B981E58CBD83E080BB25
:100830008FE99FE00197F1F700C0000081E090E0B0
:100840009A838983CE0101960E943B018FEF93ED3D
:10085000A0E381509040A040E1F700C00000539A0F
:100860001092CD0080E18093CC008091C80082601E
:100870008093C8008091CA0086608093CA008091EE
:10088000C90088618093C900AFE3BCE91197F1F713
:1008900000C00000CE010396FC01A0E0B1E02EE014
:1008A0000D9001922150E1F7FC01CE01409620917C
:1008B000C80025FFFCCF2191220F20952093CE0068
:1008C000E817F907A1F78FE39CE90197F1F700C05A
:1008D000000060960FB6F894DEBF0FBECDBFCF917B
:1008E000DF9108956F927F928F929F92AF92BF9205
:1008F000CF92DF92EF92FF920F931F93DF93CF93EC
:10090000CDB7DEB760970FB6F894DEBF0FBECDBF90
:1009100010920E0287E084B981E58CBD83E080BB34
:100920008FE99FE00197F1F700C0000081E090E0BF
:100930009A8389834E010894811C911CC4010E94F2
:100940003B018FEF93EDA0E381509040A040E1F791
:1009500000C00000539A1092CD0080E18093CC003B
:100960008091C80082608093C8008091CA00866030
:100970008093CA008091C90088618093C900AFE369
:10098000BCE91197F1F700C00000AE014D5F5F4F69
:10099000CA01A0E0B1E02EE00D90FC010192CF0170
:1009A0002150D1F7FA01CE0140962091C80025FFD1
:1009B000FCCF2191220F20952093CE00E817F90754
:1009C000A1F78FE39CE90197F1F700C000001A82BC
:1009D0001982AA24BB2400E010E090E8692E712C53
:1009E0008091C80087FFFCCF8091CE00813609F44A
:1009F0004DC1823600F5813309F492C0823308F08C
:100A000059C08C3009F418C1893109F400C186300D
:100A100039F789819A81807C9070009709F3C80129
:100A2000880F991F000F111F000F111F000F111FBA
:100A3000080F191FD5CF863609F413C18736E0F4A5
:100A4000843609F429C1853608F0CCC0833641F6D6
:100A500089819A81807C9070009711F2C801880F7B
:100A6000991F000F111F000F111F000F111F080FFA
:100A7000191F075F1F4FB4CF893609F4ABC0893700
:100A800009F477C0873609F0ABCF89819A81807CE1
:100A90009070009709F4A4CFC801880F991F000F28
:100AA000111F000F111F000F111F080F191F0F5FDB
:100AB0001F4F96CF8333F9F0833340F0863509F02A
:100AC0008FCF7A82698200E010E08ACF89819A8193
:100AD000807C9070009709F483CFC801880F991F1C
:100AE000000F111F000F111F000F111F080F191FFA
:100AF0000A5F1F4F75CF89819A81807C9070009723
:100B000009F46ECFC801880F991F000F111F000F45
:100B1000111F000F111F080F191F0E5F1F4F60CF0D
:100B2000C980DA8080E2E82EF12CEC28FD28FA82D8
:100B3000E982B801882777FD8095982F0E94BC062E
:100B400020E030E04CE752E40E948C0618160CF0CE
:100B5000D6C0B2E2EB2EF12CEC28FD28FA82E98215
:100B6000E4FEC9C0AA24BB24A01AB10A00E010E028
:100B700037CFC980DA80F4E0EF2EF12CEC28FD2885
:100B8000FA82E982B801882777FD8095982F0E9424
:100B9000BC0620E030E04CE752E40E948C061816B8
:100BA0000CF093C0E5E0EE2EF12CEC28FD28FA8243
:100BB000E982E3FE03C0109501951F4FA016B10610
:100BC0000CF090C0C70194609A838983C4010E948D
:100BD0003B0106CF89819A8185FF73C088609A8323
:100BE0008983FECE89819A81807C9070009709F478
:100BF000F7CEC801880F991F000F111F000F111F9A
:100C0000000F111F080F191F0B5F1F4FE9CE8981BD
:100C10009A81807C9070009709F4E2CEC801880F19
:100C2000991F000F111F000F111F000F111F080F38
:100C3000191F0C5F1F4FD4CE89819A81807C9070E0
:100C4000009709F4CDCEC801880F991F000F111F1E
:100C5000000F111F000F111F080F191F085F1F4FF2
:100C6000BFCE89819A81807C9070009709F4B8CEBC
:100C7000C801880F991F000F111F000F111F000FCF
:100C8000111F080F191F0D5F1F4FAACE89819A816E
:100C900080649A838983A4CE89819A81807C9070B4
:100CA000009709F49DCEC801880F991F000F111FEE
:100CB000000F111F000F111F080F191F095F1F4F91
:100CC0008FCE80619A8389838BCE0115110509F03F
:100CD00070CF74E0E72E71E0F72EEC28FD28FA8241
:100CE000E98267CF0A151B050CF070CFC701986029
:100CF0009A8389836BCF580100E010E071CE011513
:100D0000110509F02DCFA0E2EA2EA2E0FA2EEC2880
:100D1000FD28FA82E98224CFA8E1B0E0E2E9F6E01A
:100D20000C94120969837A838B839C832D833E8381
:100D30004F8358878E01075F1F4FCE010196B80180
:100D40000E94440881E1E82EF12CEC0EFD1ECE013C
:100D50000596B7010E9444088985823040F0898950
:100D6000823028F0C801B7010E94AD0801C08FEFA2
:100D70006896E6E00C942E09A8E0B0E0E2ECF6E01C
:100D80000C9412097B018C0183E08983D801C7018F
:100D90008827B7FD83959927AA27BB27282F8A8301
:100DA000E114F1040105110519F482E0898337C0CB
:100DB0008EE190E09C838B83222389F080E0E8160B
:100DC00080E0F80680E0080780E8180769F11095D0
:100DD0000095F094E094E11CF11C011D111DED82C1
:100DE000FE820F831887C801B7010E941C079C016F
:100DF000215030401216130694F4022E04C0EE0C5B
:100E0000FF1C001F111F0A94D2F7ED82FE820F8390
:100E100018878EE190E0821B930B9C838B83CE011D
:100E200001960E94760704C060E070E080E09FECCD
:100E30002896E6E00C942E09AF92BF92CF92DF92F3
:100E4000EF92FF920F931F937B018C0180E0E816D5
:100E500080E0F80681E0080780E0180758F4EFEF1B
:100E6000EE16F1040105110509F090F480E090E020
:100E7000DC0117C0F0E0EF16F0E0FF06F0E00F072E
:100E8000F1E01F0750F480E190E0A0E0B0E009C07D
:100E900088E090E0A0E0B0E004C088E190E0A0E04D
:100EA000B0E020E230E040E050E0281B390B4A0B74
:100EB0005B0B5701680104C0D694C794B794A794FC
:100EC0008A95D2F7D601C501825F9E4FFC018081D1
:100ED000281B310941095109C9011F910F91FF9048
:100EE000EF90DF90CF90BF90AF900895EF92FF9278
:100EF0000F931F93CF93DF93FC01248135814681AB
:100F0000578161818081823020F44061EFEFF0E011
:100F1000A3C0843009F49BC0823009F492C021152B
:100F200031054105510509F48FC00280F381E02DA0
:100F30008FEFE238F8070CF05AC0C2E8DFEFCE1BA3
:100F4000DF0BCA31D1056CF579018A010C2E04C082
:100F500016950795F794E7940A94D2F781E090E00C
:100F6000A0E0B0E00C2E04C0880F991FAA1FBB1F81
:100F70000A94D2F70197A109B10982239323A423EC
:100F8000B52321E030E040E050E00097A105B10535
:100F900019F420E030E0A9012E293F29402B512BE4
:100FA00003C020E030E0A901DA01C9018F77907019
:100FB000A070B07080349105A105B10539F427FF08
:100FC00009C0205C3F4F4F4F5F4F04C0215C3F4F33
:100FD0004F4F5F4FE1E0F0E0203080E0380780E0E5
:100FE000480780E4580728F5E0E0F0E022C0E03848
:100FF000F1056CF5E158FF4FDA01C9018F77907068
:10100000A070B07080349105A105B10539F427FFB7
:1010100009C0205C3F4F4F4F5F4F04C0215C3F4FE2
:101020004F4F5F4F57FF05C056954795379527950A
:10103000319687E056954795379527958A95D1F74C
:101040000BC0E0E0F0E005C0E0E0F0E005C0EFEF4D
:10105000F0E020E030E0A9018E2F87958827879562
:10106000942F9F77679566276795E695E22EA92FBF
:10107000A82BFE2FF62B622F732F8A2F9F2FCDB711
:10108000DEB7E6E00C942E09DC01FB012C911196F1
:101090003C91119712968C911297482F4F7750E000
:1010A000982F991F9927991F13966C911397862F44
:1010B000880F892B90E0661F6627661F6183009763
:1010C00039F5211531054105510511F482E029C09A
:1010D00082E89FEF9383828367E0220F331F441FD0
:1010E000551F6A95D1F783E0808309C0220F331F13
:1010F000441F551F828193810197938382832030FF
:1011000080E0380780E0480780E4580778F320C083
:101110008F3F910579F4211531054105510519F4E9
:1011200084E08083089544FF03C081E0808310C081
:1011300010820EC08F5790409383828383E0808318
:1011400087E0220F331F441F551F8A95D1F7506443
:1011500024833583468357830895FC01DB01908106
:10116000923008F449C08C91823008F445C0943024
:1011700051F461818430B1F511962C91119730E0D2
:10118000261B310941C0843021F0923041F4823075
:10119000B1F111968C9111978823A1F12DC0618135
:1011A000823001F111968C9111976817D9F4228140
:1011B000338112968D919C9113978217930794F027
:1011C00028173907BCF02481358146815781149650
:1011D0008D919D910D90BC91A02D82179307A4072E
:1011E000B50718F4662341F00DC0281739074A07E0
:1011F0005B0728F4662331F021E030E005C020E0F1
:1012000030E002C02FEF3FEFC90108952F923F92C7
:101210004F925F926F927F928F929F92AF92BF9206
:10122000CF92DF92EF92FF920F931F93CF93DF93B2
:10123000CDB7DEB7CA1BDB0B0FB6F894DEBF0FBE0F
:10124000CDBF09942A88398848885F846E847D845C
:101250008C849B84AA84B984C884DF80EE80FD805E
:101260000C811B81AA81B981CE0FD11D0FB6F894D4
:0E127000DEBF0FBECDBFED010895F894FFCF95
:10127E002320430D3F530D23203230300D0000014B
:10128E000202030303030404040404040404050516
:10129E0005050505050505050505050505050606EE
:1012AE0006060606060606060606060606060606D0
:1012BE0006060606060606060606060606060707BE
:1012CE0007070707070707070707070707070707A0
:1012DE000707070707070707070707070707070790
:1012EE000707070707070707070707070707070780
:1012FE00070707070707070707070707070708086E
:10130E00080808080808080808080808080808084F
:10131E00080808080808080808080808080808083F
:10132E00080808080808080808080808080808082F
:10133E00080808080808080808080808080808081F
:10134E00080808080808080808080808080808080F
:10135E0008080808080808080808080808080808FF
:10136E0008080808080808080808080808080808EF
:0E137E000808080808080808080808080808F1
:00000001FF
